:100000000C9462000C948A000C948A000C948A0070
:100010000C948A000C948A000C948A000C948A0038
:100020000C948A000C948A000C948A000C94E104CD
:100030000C948A000C948A000C948A000C948A0018
:100040000C943F040C948A000C94AF040C94890423
:100050000C948A000C948A000C948A000C948A00F8
:100060000C948A000C948A000000000024002700F1
:100070002A0000000000250028002B0000000000DE
:1000800023002600290004040404040404040202DA
:100090000202020203030303030301020408102007
:1000A0004080010204081020010204081020000012
:1000B0000008000201000003040700000000000027
:1000C0000000B80511241FBECFEFD8E0DEBFCDBFC2
:1000D00011E0A0E0B1E0E4E9F0E102C005900D928A
:1000E000A23CB107D9F722E0A2ECB1E001C01D9219
:1000F000AE39B207E1F710E0C2E6D0E004C02197C4
:10010000FE010E944208C136D107C9F70E94F405DA
:100110000C9448080C940000833081F028F481305E
:1001200099F08230A9F008958730A9F08830C9F09D
:100130008430B1F4809180008F7D03C08091800075
:100140008F7780938000089584B58F7784BD08955C
:1001500084B58F7DFBCF8091B0008F778093B00006
:1001600008958091B0008F7DF9CFCF93DF93282F32
:1001700030E0F901E255FF4F8491F901E656FF4F57
:10018000D491F901EA57FF4FC491CC23A1F081111A
:100190000E948C00EC2FF0E0EE0FFF1FE458FF4FA1
:1001A000A591B491EC91ED2381E090E009F480E019
:1001B000DF91CF91089580E090E0FACF1F93CF9325
:1001C000DF93282F30E0F901E255FF4F8491F901C8
:1001D000E656FF4FD491F901EA57FF4FC491CC2363
:1001E000A9F0162F81110E948C00EC2FF0E0EE0F89
:1001F000FF1FEE58FF4FA591B4918FB7F894EC9183
:10020000111108C0D095DE23DC938FBFDF91CF9111
:100210001F910895DE2BF8CF3FB7F8948091F1013C
:100220009091F201A091F301B091F40126B5A89B41
:1002300005C02F3F19F00196A11DB11D3FBFBA2F78
:10024000A92F982F8827BC01CD01620F711D811D38
:10025000911D42E0660F771F881F991F4A95D1F7BD
:1002600008958F929F92AF92BF92CF92DF92EF92BA
:10027000FF924B015C010E940C016B017C010E940A
:100280000C016C197D098E099F09683E7340810538
:100290009105A8F321E0821A9108A108B10888EE1F
:1002A000C80E83E0D81EE11CF11C81149104A10446
:1002B000B10429F7FF90EF90DF90CF90BF90AF90FF
:1002C0009F908F900895AF92BF92CF92DF92EF925E
:1002D000FF920F931F93CF93DF936C017B018B01F0
:1002E000040F151FEB015E01AE18BF08C017D10740
:1002F00059F06991D601ED91FC910190F081E02DCA
:10030000C6010995892B79F7C501DF91CF911F911E
:100310000F91FF90EF90DF90CF90BF90AF90089536
:10032000FC01538D448D252F30E0842F90E0821BFB
:10033000930B541710F0CF96089501970895FC0180
:10034000918D828D981761F0A28DAE0FBF2FB11DD8
:100350005D968C91928D9F5F9F73928F90E0089530
:100360008FEF9FEF0895FC01918D828D981731F0EA
:10037000828DE80FF11D858D90E008958FEF9FEF3E
:100380000895FC01918D228D892F90E0805C9F4F14
:10039000821B91098F739927089585EF91E00E9440
:1003A000C10121E0892B09F420E0822F089580E02B
:1003B00090E0892B29F00E94CD0181110C9400005E
:1003C0000895FC01A48DA80FB92FB11DA35ABF4FEA
:1003D0002C91848D90E001968F739927848FA68944
:1003E000B7892C93A089B1898C91837080648C9398
:1003F000938D848D981306C00288F389E02D808147
:100400008F7D80830895EF92FF920F931F93CF9378
:10041000DF93EC0181E0888F9B8D8C8D98131AC03F
:10042000E889F989808185FF15C09FB7F894EE8926
:10043000FF896083E889F989808183708064808383
:100440009FBF81E090E0DF91CF911F910F91FF90CE
:10045000EF900895F62E0B8D10E00F5F1F4F0F7376
:100460001127E02E8C8D8E110CC00FB607FCFACF31
:10047000E889F989808185FFF5CFCE010E94E101ED
:10048000F1CFEB8DEC0FFD2FF11DE35AFF4FF08202
:100490009FB7F8940B8FEA89FB8980818062CFCF68
:1004A000CF93DF93EC01888D8823B9F0AA89BB89AB
:1004B000E889F9898C9185FD03C0808186FD0DC096
:1004C0000FB607FCF7CF8C9185FFF2CF808185FFB7
:1004D000EDCFCE010E94E101E9CFDF91CF910895E8
:1004E0008F929F92AF92BF92FF920F931F93CF93E1
:1004F000DF93FC01F0808BE08F1508F44AC0828105
:1005000008E512E0081B110987FD1395000F111F64
:10051000000F111F8181C8E8D0E0C81BD10987FDF9
:10052000D395CC0FDD1FCC0FDD1F4E010D2E000C1F
:10053000AA08BB089801012E000C440B550B281982
:1005400039094A095B09DB010E94FD0724EB30E011
:1005500040E050E00E94D307820E931EA41EB51EF9
:100560008C169D062CF0E801801691060CF4E4012F
:100570002297CC0FDD1F2FB7F8948F2D90E0FC0150
:10058000EE0FFF1FE80FF91FEC53FE4FD283C1831C
:100590002FBFDF91CF911F910F91FF90BF90AF9030
:1005A0009F908F900895CF93DF93DC018C918C30D6
:1005B00008F06DC0CB01FB01E656FF4F24918A572E
:1005C0009F4FFC018491882399F090E0880F991F38
:1005D000FC01E859FF4FC591D491FC01EE58FF4F43
:1005E000859194918FB7F894E881E22BE8838FBFCF
:1005F0008C91282F30E0F901EE0FFF1FE20FF31F5F
:10060000EC53FE4F962F9F736081607C692B608353
:1006100011961C92119712961C9212972CE0622F41
:100620000E943608829FB001112430E020E0AB0127
:10063000420F531FFA01EE0FFF1FE40FF51FEC539B
:10064000FE4F908196FD16C02F5F3F4F2C30310535
:1006500071F781110FC01092800082E080938100B9
:100660001092850010928400B19A80916F00826090
:1006700080936F00EC918E2F90E0FC01EE0FFF1F36
:10068000E80FF91FEC53FE4F8081806480838C91CA
:10069000DF91CF910895FC0101900020E9F7319797
:1006A000AF01481B590BBC0185EF91E00C9463012D
:1006B0008AE191E00C944B038F929F92AF92BF928C
:1006C0000F931F93CF93DF93CDB7DEB7A1970FB6EC
:1006D000F894DEBF0FBECDBF19A2423008F44AE045
:1006E0008E010F5D1F4F842E912CB12CA12CA501E2
:1006F00094010E940508E62FB901CA01EA30F4F41A
:10070000E05DD801EE938D01232B242B252B79F767
:1007100090E080E0109719F0CD010E944B03A19664
:100720000FB6F894DEBF0FBECDBFDF91CF911F9102
:100730000F91BF90AF909F908F900895E95CE1CFAB
:10074000CF92DF92EF92FF92CF93DF936B017C0108
:100750006DE285EF91E00E940302EC0166277727A6
:10076000CB016C197D098E099F094AE00E945C0348
:100770008C0F9D1FDF91CF91FF90EF90DF90CF9076
:100780000895CF93DF930E944B03EC010E9458031E
:100790008C0F9D1FDF91CF910895CF93DF93EC01D4
:1007A0008DE191E00E94C10381E391E00E944B033F
:1007B000BE01DD0F880B990B4AE00E945C0387E3C2
:1007C00091E00E94C103DF91CF910C945803CF9325
:1007D000DF93BC01990F880B990B97FF0AC00E9409
:1007E000A003EC010E9458038C0F9D1FDF91CF9155
:1007F00008954AE00E945C03F4CF81E491E00E94F6
:10080000C10383E691E00E944B0380910601909121
:1008100007018F3F980711F490E080E00E94E70302
:100820008CE691E00E944B038091040190910501B8
:100830008F3F980711F490E080E00E94E70385E77E
:1008400091E00E944B0380910201909103018F3F40
:10085000980711F490E080E00E94E7038EE791E0B2
:100860000E944B0380910001909101018F3F9807F6
:1008700011F490E080E00E94E7030C9458031F926B
:100880000F920FB60F9211242F933F938F939F9344
:10089000AF93BF938091ED019091EE01A091EF0194
:1008A000B091F0013091EC0123E0230F2D3758F582
:1008B0000196A11DB11D2093EC018093ED01909351
:1008C000EE01A093EF01B093F0018091F1019091BE
:1008D000F201A091F301B091F4010196A11DB11DA7
:1008E0008093F1019093F201A093F301B093F4018E
:1008F000BF91AF919F918F913F912F910F900FBE1C
:100900000F901F90189526E8230F0296A11DB11D88
:10091000D2CF1F920F920FB60F9211242F933F93B5
:100920004F935F936F937F938F939F93AF93BF93F7
:10093000EF93FF9385EF91E00E94E101FF91EF912A
:10094000BF91AF919F918F917F916F915F914F91E7
:100950003F912F910F900FBE0F901F9018951F92EF
:100960000F920FB60F9211242F938F939F93EF93B3
:10097000FF93E0910502F09106028081E0910B0265
:10098000F0910C0282FD1BC0908180910E028F5F5E
:100990008F7320910F02821741F0E0910E02F0E078
:1009A000EB50FE4F958F80930E02FF91EF919F9138
:1009B0008F912F910F900FBE0F901F9018958081EF
:1009C000F4CF1F920F920FB60F9211242F933F93E3
:1009D0004F935F936F937F938F939F93AF93BF9347
:1009E000CF93DF93EF93FF938091C201C091C30136
:1009F000D0E087FF24C0109285001092840080917F
:100A0000C2018F5F8093C2018091C201082E000C49
:100A1000990B8C179D0724F48091C2018C30C4F18E
:100A20008091840090918500049680349C4908F45C
:100A30007AC08091840090918500049676C0809160
:100A4000C201082E000C990B8C179D07C4F6E0918B
:100A5000C2018E2FEE0F990BFC01EE0FFF1FE80F66
:100A6000F91FEC53FE4F808186FFC9CFE091C20190
:100A70008E2FEE0F990BFC01EE0FFF1FE80FF91FF1
:100A8000EC53FE4F808160E08F730E94DE00B7CF91
:100A90002091840030918500E091C2018E2FEE0FED
:100AA000990BFC01EE0FFF1FE80FF91FEC53FE4FEF
:100AB00081819281820F931F909389008093880097
:100AC000E091C2018E2FEE0F990BFC01EE0FFF1F7C
:100AD000E80FF91FEC53FE4F808186FF11C0E091B3
:100AE000C2018E2FEE0F990BFC01EE0FFF1FE80FD6
:100AF000F91FEC53FE4F808161E08F730E94DE008E
:100B0000FF91EF91DF91CF91BF91AF919F918F9125
:100B10007F916F915F914F913F912F910F900FBEF9
:100B20000F901F90189580E49CE990938900809322
:100B300088008FEF8093C201E3CFFC019091C30145
:100B40009C3098F481E0890F8093C3019083892FB2
:100B500090E0FC01EE0FFF1FE80FF91FEC53FE4F72
:100B600088EB9BE09283818308958FEF80830895C3
:100B7000E5EFF1E01382128288EE93E0A0E0B0E0AE
:100B800084839583A683B7838CE091E091838083EF
:100B900085EC90E09587848784EC90E09787868742
:100BA00080EC90E0918B808B81EC90E0938B828B3A
:100BB00082EC90E0958B848B86EC90E0978B868B13
:100BC000118E128E138E148E8BE992E00E949D0579
:100BD00088E992E00E949D0585E992E00E949D05CA
:100BE00082E992E00C949D05789484B5826084BD7E
:100BF00084B5816084BD85B5826085BD85B5816021
:100C000085BD80916E00816080936E00109281009E
:100C10008091810082608093810080918100816059
:100C2000809381008091800081608093800080911A
:100C3000B10084608093B1008091B00081608093A6
:100C4000B00080917A00846080937A0080917A006D
:100C5000826080937A0080917A00816080937A002C
:100C600080917A00806880937A001092C1006DE0D4
:100C700070E08BE992E00E94D3026CE070E088E9BA
:100C800092E00E94D3026BE070E085E992E00E945E
:100C9000D3026AE070E082E992E00E94D302E09120
:100CA0000502F091060282E08083E0910102F0915A
:100CB00002021082E0910302F09104028FEC808323
:100CC00010920D02E0910902F0910A0286E0808301
:100CD000E0910702F0910802808180618083E091B9
:100CE0000702F0910802808188608083E09107020A
:100CF000F0910802808180688083E0910702F09182
:100D0000080280818F7D80830E94FD0380E0882E11
:100D100080E0982ECFEFDFEF70E060E08BE992E0AB
:100D20000E94700270E060E088E992E00E94700228
:100D300070E060E085E992E00E94700270E060E09F
:100D400082E992E00E94700285EF91E00E94C10169
:100D5000892B51F085EF91E00E949F01813309F4C6
:100D6000F0C0823309F4F0C08EE00E94B5005C014F
:100D700081E0A114B10409F480E08093EB018FE0DD
:100D80000E94B5006C0181E0C114D10409F480E037
:100D90008093EA0180E10E94B5007C0181E0E114CA
:100DA000F10409F480E08093E90181E10E94B5003B
:100DB0008C0181E00115110509F480E08093E801C0
:100DC000AB28D1F0A0900601B09007011A141B04C3
:100DD0009CF464EB70E08BE992E00E94700281E089
:100DE000A81AB108B0920701A09206016CED75E057
:100DF00080E090E00E943101CD28D1F0C090040144
:100E0000D09005011C141D049CF464EB70E088E98B
:100E100092E00E94700221E0C21AD108D09205012E
:100E2000C09204016CED75E080E090E00E94310119
:100E3000EF28D1F0E0900201F09003011E141F048E
:100E40009CF464EB70E085E992E00E94700281E01E
:100E5000E81AF108F0920301E09202016CED75E0EE
:100E600080E090E00E943101012BC9F00091000167
:100E7000109101011016110694F464EB70E082E900
:100E800092E00E9470020150110910930101009339
:100E900000016CED75E080E090E00E94310110925D
:100EA000EB011092EA011092E9011092E80162E36D
:100EB00070E080E090E00E94310180910601909105
:100EC0000701892B41F481E090E00E94CD03D0938B
:100ED0000701C09306018091040190910501892BBF
:100EE00041F482E090E00E94CD03D0930501C093CD
:100EF00004018091020190910301892B41F483E068
:100F000090E00E94CD03D0930301C0930201809131
:100F1000000190910101892B41F484E090E00E944E
:100F2000CD03D0930101C09300018114910409F411
:100F3000F3CE0E94CD01882309F4EECE0E9400007A
:100F4000EBCE0E94FD0310CF87E891E00E94C10321
:100F50008091060190910701019621F485EA91E0C4
:100F60000E94C1038091040190910501019621F432
:100F70008CEA91E00E94C1038091020190910301EB
:100F8000019621F483EB91E00E94C103809100015E
:100F900090910101019621F48AEB91E00E94C10336
:100FA0000E945803E1CE052E97FB1EF400940E9488
:100FB000EA0757FD07D00E94050807FC03D04EF44E
:100FC0000C94EA0750954095309521953F4F4F4F2F
:100FD0005F4F089590958095709561957F4F8F4FE5
:100FE0009F4F08950E942708A59F900DB49F900DD4
:100FF000A49F800D911D11240895B7FF0C94F20752
:101000000E94F207821B930B0895A1E21A2EAA1BDD
:10101000BB1BFD010DC0AA1FBB1FEE1FFF1FA217A8
:10102000B307E407F50720F0A21BB30BE40BF50BA5
:10103000661F771F881F991F1A9469F7609570952E
:10104000809590959B01AC01BD01CF010895A29FB1
:10105000B001B39FC001A39F700D811D1124911D8C
:10106000B29F700D811D1124911D0895991B79E087
:1010700004C0991F961708F0961B881F7A95C9F728
:1010800080950895EE0FFF1F0590F491E02D0994CF
:04109000F894FFCF02
:101094000A000A000A000A000000000003026301BB
:1010A40090015002C1019F01B3010D0A000A2A2ACE
:1010B4002A2A205761726E6E696E67202A2A2A2AAC
:1010C400004974656D200020697320456D70747942
:1010D400000A2A2A2A2A204C697374206F66204940
:1010E40074656D7320616E6420436F756E742A2A73
:1010F4002A2A004974656D20313A20004974656DCF
:1011040020323A20004974656D20333A2000497436
:10111400656D20343A20000A2A2A2A2A204C697351
:1011240074206F6620456D707479204974656D7301
:101134002A2A2A2A004974656D2031004974656D94
:101144002032004974656D2033004974656D203484
:02115400000099
:00000001FF
