:100000000C945D000C9485000C9485000C94850084
:100010000C9485000C9485000C9485000C9485004C
:100020000C9485000C9485000C9485000C9485003C
:100030000C9485000C9485000C9485000C9485002C
:100040000C946B020C9485000C94DB020C94B502AA
:100050000C9485000C9485000C9485000C9485000C
:100060000C9485000C94850000000008000201003B
:100070000003040700000000000000000000000072
:10008000250028002B0000000000240027002A0083
:10009000040404040404040402020202020203032E
:1000A0000303030301020408102040800102040836
:1000B0001020010204081020F90311241FBECFEF05
:1000C000D8E0DEBFCDBF11E0A0E0B1E0ECE5F8E0A4
:1000D00002C005900D92A631B107D9F721E0A6E143
:1000E000B1E001C01D92AD3BB207E1F710E0CDE5F4
:1000F000D0E004C02197FE010E942604CC35D10730
:10010000C9F70E940D030C942C040C94000090E09D
:10011000FC01EC55FF4F249180579F4FFC018491C7
:10012000882399F090E0880F991FFC01EA57FF4F50
:10013000A591B491FC01E458FF4F859194918FB73C
:10014000F894EC91E22BEC938FBF089590E0FC01C2
:10015000E859FF4F2491FC01EC55FF4F3491FC010D
:10016000E057FF4FE491EE23C9F0222339F023300A
:1001700001F1A8F4213019F1223029F1F0E0EE0F5D
:10018000FF1FE458FF4FA591B4918FB7F894EC91FD
:10019000611126C030953E233C938FBF08952730D0
:1001A000A9F02830C9F0243049F7809180008F7D74
:1001B00003C0809180008F7780938000DFCF84B56B
:1001C0008F7784BDDBCF84B58F7DFBCF8091B0006E
:1001D0008F778093B000D2CF8091B0008F7DF9CF20
:1001E0003E2BDACF3FB7F89480911C0190911D010E
:1001F000A0911E01B0911F0126B5A89B05C02F3FFD
:1002000019F00196A11DB11D3FBFBA2FA92F982F3C
:100210008827BC01CD01620F711D811D911D42E037
:10022000660F771F881F991F4A95D1F708958F92FF
:100230009F92AF92BF92CF92DF92EF92FF924B01CB
:100240005C010E94F2006B017C010E94F2006C19BB
:100250007D098E099F09683E734081059105A8F3C9
:1002600021E0821A9108A108B10888EEC80E83E047
:10027000D81EE11CF11C81149104A104B10429F7DA
:10028000FF90EF90DF90CF90BF90AF909F908F90B6
:100290000895AF92BF92CF92DF92EF92FF920F93A9
:1002A0001F93CF93DF936C017B018B01040F151F0C
:1002B000EB015E01AE18BF08C017D10759F0699174
:1002C000D601ED91FC910190F081E02DC6010995D8
:1002D000892B79F7C501DF91CF911F910F91FF9085
:1002E000EF90DF90CF90BF90AF900895FC01538DB9
:1002F000448D252F30E0842F90E0821B930B541700
:1003000010F0CF96089501970895FC01918D828D8C
:10031000981761F0A28DAE0FBF2FB11D5D968C9125
:10032000928D9F5F9F73928F90E008958FEF9FEF64
:100330000895FC01918D828D981731F0828DE80F20
:10034000F11D858D90E008958FEF9FEF0895FC01DA
:10035000918D228D892F90E0805C9F4F821B9109A7
:100360008F739927089580E291E00E94A70121E010
:10037000892B09F420E0822F089580E090E0892BFA
:1003800029F00E94B30181110C9400000895FC0132
:10039000A48DA80FB92FB11DA35ABF4F2C91848DE6
:1003A00090E001968F739927848FA689B7892C9343
:1003B000A089B1898C91837080648C93938D848D96
:1003C000981306C00288F389E02D80818F7D808399
:1003D0000895EF92FF920F931F93CF93DF93EC0159
:1003E00081E0888F9B8D8C8D98131AC0E889F989DC
:1003F000808185FF15C09FB7F894EE89FF896083DF
:10040000E889F98980818370806480839FBF81E05F
:1004100090E0DF91CF911F910F91FF90EF900895A1
:10042000F62E0B8D10E00F5F1F4F0F731127E02E7C
:100430008C8D8E110CC00FB607FCFACFE889F989B4
:10044000808185FFF5CFCE010E94C701F1CFEB8DF2
:10045000EC0FFD2FF11DE35AFF4FF0829FB7F89488
:100460000B8FEA89FB8980818062CFCFCF93DF93A6
:10047000682F80E291E00E94E901EC0142E050E047
:1004800062E171E080E291E00E9449018C0F9D1FC2
:10049000DF91CF910895CF93DF93EC01888D88236E
:1004A000B9F0AA89BB89E889F9898C9185FD03C0D7
:1004B000808186FD0DC00FB607FCF7CF8C9185FFBC
:1004C000F2CF808185FFEDCFCE010E94C701E9CF39
:1004D000DF91CF9108951F920F920FB60F921124C2
:1004E0002F933F938F939F93AF93BF938091180166
:1004F00090911901A0911A01B0911B01309117013F
:1005000023E0230F2D3758F50196A11DB11D20932F
:1005100017018093180190931901A0931A01B093C9
:100520001B0180911C0190911D01A0911E01B091B1
:100530001F010196A11DB11D80931C0190931D0107
:10054000A0931E01B0931F01BF91AF919F918F9116
:100550003F912F910F900FBE0F901F90189526E896
:10056000230F0296A11DB11DD2CF1F920F920FB67D
:100570000F9211242F933F934F935F936F937F9329
:100580008F939F93AF93BF93EF93FF9380E291E09C
:100590000E94C701FF91EF91BF91AF919F918F9101
:1005A0007F916F915F914F913F912F910F900FBE6F
:1005B0000F901F9018951F920F920FB60F92112453
:1005C0002F938F939F93EF93FF93E0913001F091DE
:1005D00031018081E0913601F091370182FD1BC02D
:1005E0009081809139018F5F8F7320913A0182173A
:1005F00041F0E0913901F0E0E05EFE4F958F80938D
:100600003901FF91EF919F918F912F910F900FBE24
:100610000F901F9018958081F4CF789484B58260F4
:1006200084BD84B5816084BD85B5826085BD85B596
:10063000816085BD80916E00816080936E00109214
:10064000810080918100826080938100809181008F
:100650008160809381008091800081608093800020
:100660008091B10084608093B1008091B00081607E
:100670008093B00080917A00846080937A008091AA
:100680007A00826080937A0080917A008160809302
:100690007A0080917A00806880937A001092C1007D
:1006A000E0913001F091310182E08083E0912C01F2
:1006B000F0912D011082E0912E01F0912F018FEC2D
:1006C000808310923801E0913401F091350186E089
:1006D0008083E0913201F0913301808180618083D9
:1006E000E0913201F0913301808188608083E09154
:1006F0003201F0913301808180688083E091320182
:10070000F091330180818F7D808368EE73E080E01B
:1007100090E00E94170183E00E94870085E00E941C
:10072000870086E00E94870089E00E948700C0E081
:10073000D0E080E291E00E94A701892BD1F080E215
:1007400091E00E94850180931601873509F50E948A
:10075000360261E083E00E94A60061E086E00E942C
:10076000A60060E085E00E94A60060E089E00E94AB
:10077000A60064E670E080E090E00E9417012097F8
:10078000C1F20E94B3018823A1F20E940000D1CFE0
:10079000833589F40E94360261E085E00E94A6005C
:1007A00061E089E00E94A60060E083E00E94A6006C
:1007B00060E086E0DCCF843469F40E94360261E0B8
:1007C00085E00E94A60061E086E00E94A60060E04D
:1007D00083E0C9CF813469F60E94360261E083E08C
:1007E0000E94A60061E089E00E94A60060E085E02A
:1007F000DDCFE0E2F1E01382128288EE93E0A0E028
:10080000B0E084839583A683B78384E091E09183ED
:10081000808385EC90E09587848784EC90E09787CF
:10082000868780EC90E0918B808B81EC90E0938BBD
:10083000828B82EC90E0958B848B86EC90E0978B9A
:10084000868B118E128E138E148E0895EE0FFF1F5D
:0C0850000590F491E02D0994F894FFCF7E
:10085C0000000000E901490176014B02A701850166
:06086C0099010D0A0000D5
:00000001FF
