:1000000001308A00AE29000034088700351C061034
:100010003518061486141430B60036308400831365
:100020000008031919285230F700F70B1528800B28
:100030001328861008001030B700F701FA01B40C3D
:10004000B30C031C29283508F7070318FA0A3608E9
:10005000FA07FA0CF70CF90CF80CB70B1F288A11E9
:100060000A120F2A8E30F7003408F8003308F9001E
:10007000FA01F808031D46287908F800F90108304C
:10008000F702F808031D4628F7014E280310F81B55
:100090004D28F90DF80DF7034628F8138A110A12B6
:1000A000182A330803191629BF003708031916291F
:1000B000BF02031C60287F30BF070318162966287B
:1000C0008130BF02031C1629031916293F08F700C7
:1000D000F801F901FA01BE013408BD00BD17350869
:1000E000BC003608BB001930BF003A08BB02031839
:1000F00089280130BC0203188928BD020318892809
:10010000BE0203188928BE0ABD0ABC0A3A08BB070A
:10011000BB283908BC020318A4280130BD0203180B
:10012000A428BE020318A428BE0ABD0A3908BC07C9
:100130003A08BB07031CBB28BC0A031DBB28BD0A29
:10014000031DBB28BE0ABB2838088038BD0203182F
:10015000BA280130BE020318BA28BE0A380880380F
:10016000BD073908BC07031C9828BD0A031D982841
:10017000BE0A98287A14BF0BBE28C9280310BB0DED
:10018000BC0DBD0DBE0D0310FA0DF90DF80DC00D1F
:100190007528401CD1280310F80CF90CFA0CC00C7F
:1001A000D428F70303191629C01BFD280310BB0D23
:1001B000BC0DBD0DBE0D3A08BB020318E928013085
:1001C000BC020318E928BD020318E928BE02031C7B
:1001D0000C293908BC020318F4280130BD020318A9
:1001E000F428BE02031C0C2938088038BD0203180D
:1001F000FD280130BE02031C0C29FA0A031D0C293C
:10020000F90A031D0C29F80A031D0C29F70A031922
:100210001629F80CF90CFA0C3408BF003808BF0690
:10022000BF1F1429F8171A29F8131A29F701F80122
:10023000F901FA018A110A12292A8E30F7003308CF
:10024000F7023408F9003508F800F917F708031920
:1002500034290310F908031D3029F808031934293B
:10026000F90CF80CF70B2929B41F3B29F809F909F7
:10027000F80A0319F90A8A110A12322ABB01040882
:10028000BA003B10831B3B14340EF038B600B6079F
:10029000E23EB700323EB90034080F39B707B7075E
:1002A000B907E93EB800B807B807330E0F39B807E9
:1002B000B907B80DB90DB909B90D33080F39B90728
:1002C000B60D0730B5000A30B907B803031C64291E
:1002D000B807B703031C6829B707B603031C6C29CA
:1002E000B607B503031C702935308400831307302B
:1002F0003A053A1384073930040203193A17000803
:10030000F700031D8B293A1B8B293A1AA829BA1921
:100310008B2920308E29BA153A123030F707B401F4
:100320000408B3003410831B34147708BC0022087F
:1003300084008313231883173C088000840A8001FB
:10034000A20A0319A30A33088400831334188317FD
:10035000840A3A1F7B298A110A12402A03081F398E
:100360008300A301A20183161F149F141F159F1160
:1003700007309C0083138312A001A101831687011B
:10038000061206108610013083129F0080308316FB
:100390009F0083121F150E30B400B5010420803079
:1003A000B400B50104205430B4000130B50004207D
:1003B0006530B4000130B50004206D30B400013068
:1003C000B50004207030B4000130B50004203D3089
:1003D000B4000130B50004208A30B400B501042017
:1003E0002A30B4000130B50004204330B40001309D
:1003F000B50004208630B400B50104201F19FE2981
:100400001F15003083161E048312A400A5012508C1
:10041000B4002408B300B6010530B5001B287908E4
:10042000A7007808A6002708B4002608B3003228E1
:100430007A08B6007908B5007808B4007708B300E8
:100440000A30BA00D730B9002330B8008230B70084
:1004500051287A08B6007908B5007808B400770802
:10046000B3001D297908A7007808A600A301283049
:10047000A200093084002708B4002608B3003E29F2
:10048000B2013208043C031C512A28303207840090
:1004900083130008B300B4000130B5000420B20A91
:1004A000412A8A30B400B50104202A30B40001305A
:1004B000B5000420A708031D612A2608323C031852
:0C04C000632A0616642A0612FA2963005B
:02400E00313F40
:00000001FF
;PIC16F877A
;CRC=EDA8  CREATED="12-Oct-23 14:11"
